:100000000C944A000C945C000C945C000C948202EA
:100010000C94A3020C945C000C945C000C945C00A7
:100020000C945C000C945C000C945C000C945C00E0
:100030000C945C000C945C000C945C000C945C00D0
:100040000C945C000C945C000C945C000C945C00C0
:100050000C945C000C945C000C945C000C945C00B0
:100060000C945C000C945C000C945C000C945C00A0
:100070000C945C000C945C000C945C000C945C0090
:100080000C945C000C945C000C945C000C945C0080
:100090000C945C0011241FBECFEFD0E1DEBFCDBFBA
:1000A00011E0A0E0B1E001C01D92A831B107E1F775
:1000B0000E944C050C94AD050C94000081B18F603A
:1000C00081B98FEF87B982B1807F82B9ECE7F0E028
:1000D0008081806C808380818F7D80838081807F20
:1000E0008083EAE7F0E080818760808384B1806666
:1000F00084B981EA8093800083E0809381008DB190
:100100008C608DB97298739A83B3836083BBA19816
:10011000A09A109289001092880010928B00109281
:100120008A0080911301887F877F8093130110924A
:100130000F0110920E0110920D0110920C0182E03D
:10014000809310011DBAE9E6F0E010828081806A98
:1001500080838DB38C608DBB1AB808954498439802
:100160000895409841984298089580910A0190918D
:100170000B019093070180930601809108019091F3
:100180000901909305018093040110920B011092D4
:100190000A011092090110920801109203011092B5
:1001A00002011092010110920001089597FD03C011
:1001B0007398729A0BC07298739A91958195910970
:1001C0008F3F910519F014F08FEF90E09093890024
:1001D0008093880008959093030180930201919584
:1001E000819591099093010180930001089597FDF5
:1001F00003C0A098A19A0BC0A198A09A919581954F
:1002000091098F3F910519F014F08FEF90E09093D2
:100210008B0080938A0008958F3F910509F02CF49C
:1002200081302FEF920724F005C08FEF90E002C0DD
:1002300081E09FEF90930B0180930A0108958F3F17
:10024000910509F02CF481302FEF920724F005C0BE
:100250008FEF90E002C081E09FEF909309018093BF
:100260000801089520910A0130910B01280F391FD0
:100270002F3F310509F02CF430930B0120930A0134
:1002800006C08FEF90E090930B0180930A0180915C
:100290000A0190910B0181309F4F34F481E09FEF70
:1002A00090930B0180930A010895209108013091E9
:1002B0000901280F391F2F3F310509F02CF4309325
:1002C00009012093080106C08FEF90E09093090187
:1002D00080930801809108019091090181309F4F1E
:1002E00034F481E09FEF9093090180930801089511
:1002F0002091020130910301280F391F2F3F310552
:1003000009F02CF4309303012093020106C08FEF13
:1003100090E09093030180930201809102019091FB
:10032000030181309F4F34F481E09FEF90930301EC
:100330008093020108952091000130910101280F5E
:10034000391F2F3F310509F02CF430930101209320
:10035000000106C08FEF90E09093010180930001AF
:10036000809100019091010181309F4F34F481E030
:100370009FEF9093010180930001089590930301F2
:1003800080930201089590930101809300010895E4
:10039000EF92FF9280910A0190910B01209102014E
:1003A00030910301820F931FE0900801F090090142
:1003B0002091000130910101E20EF31E8F3F910563
:1003C00009F02CF481302FEF920724F005C08FEF55
:1003D00090E002C081E09FEF2FEFE216F10409F0F8
:1003E00034F421E0E2162FEFF2062CF008C0EE24E0
:1003F000EA94F12C04C0EE24E394FF24FA940E94C2
:10040000D600C701FF90EF900C94F7008130C9F03F
:1004100030F0823049F1833009F04FC038C080910C
:10042000130180FF04C0049B02C08E7F37C080B1DF
:100430008295817091E089279091130180FB90F95A
:100440003AC08091130181FF04C0059B02C08D7FDB
:1004500025C080B185FB882780F991E0892790919C
:10046000130180FB91F927C08091130182FF04C022
:10047000069B02C08B7F12C080B186FB882780F963
:1004800091E089279091130180FB92F914C080912B
:10049000130183FF07C0079B05C0877F809313016B
:1004A00081E0089580B18095881F8827881F9091EA
:1004B000130180FB93F99093130180E008959091CC
:1004C0007C00907F90937C0090917C00982B90937F
:1004D0007C0080917A00806480937A0080917A0019
:1004E00086FDFCCF089580917A00806480937A0025
:1004F00080917A0086FDFCCF2091780030917900C0
:10050000C90108951F920F920FB60F9211248F9375
:100510009F9380910E0190910F01019690930F018E
:1005200080930E0180910E0190910F018536910507
:1005300010F0109801C0109A9F918F910F900FBEEC
:100540000F901F9018951F920F920FB60F921124C3
:100550008F939F9380910C0190910D010196909340
:100560000D0180930C0180910C0190910D01853655
:10057000910510F0119801C0119A9F918F910F90E1
:100580000FBE0F901F901895AF92BF92CF92DF923F
:10059000EF92FF9284E00E945F02F4E0CF2ED12C14
:1005A000E12CF12C0E947302E80EF91E21E0C21A20
:1005B000D108C1F75701B694A794B694A79483E0E5
:1005C0000E945F02E4E0CE2ED12CE12CF12C0E949F
:1005D0007302E80EF91E41E0C41AD108C1F7970171
:1005E00036952795369527958091140190911501A0
:1005F00040E2A41643E0B40608F467C0203233405A
:1006000008F067C09C0124503109309315012093F4
:100610001401845591090E94EB00119A81E06DC08C
:100620009C012C5F3F4F30931501209314018C5A8D
:100630009F4F0E94EB00109A109210012BC088E58A
:1006400092E0909303018093020188EA9DEF9093DA
:10065000010180930001109A80911001813069F4AA
:1006600088EA9DEF909303018093020188E592E070
:100670009093010180930001119A8091140190914F
:10068000150154E0959587955A95E1F790931501DA
:100690008093140180911401909115018C399F4F22
:1006A00034F48CE99FEF90931501809314018091AD
:1006B000140190911501853691053CF184E690E096
:1006C000909315018093140120C020323340C0F074
:1006D000A7CF109203011092020110920101109213
:1006E00000011098119844E0959587954A95E1F797
:1006F000909315018093140182E080931001CACF7A
:10070000809110018111A8CF9ACFFF90EF90DF90D8
:10071000CF90BF90AF9008958F929F92AF92BF926B
:10072000CF92DF92EF92FF9280E00E945F0238E06A
:10073000C32ED12CE12CF12C0E947302E80EF91E7D
:1007400081E0C81AD108C1F7570193E0B694A79485
:100750009A95E1F781E00E945F0228E0C22ED12C39
:10076000E12CF12C0E947302E80EF91E81E0C81AF8
:10077000D108C1F74701B3E096948794BA95E1F7A1
:1007800082E00E945F0288E0C82ED12CE12CF12C7F
:100790000E947302E80EF91E81E0C81AD108C1F761
:1007A000A3E0F694E794AA95E1F789EC8816910402
:1007B000D0F089ECA816B10448F088EA9DEF909338
:1007C00003018093020188E592E008C088E592E089
:1007D000909303018093020188EA9DEF90930101B9
:1007E000809300010CC0109203011092020110923C
:1007F00001011092000189ECA816B104F0F689EC11
:10080000E816F10460F088E592E09093030180938C
:10081000020188EA9DEF9093010180930001FF900F
:10082000EF90DF90CF90BF90AF909F908F90089502
:10083000EF92FF9220910E0130910F01BC01621BDB
:10084000730B20910C0130910D017C01E21AF30A27
:100850008091110190911201860F971F90931201C0
:100860008093110140911601509117014E0D5F1DAB
:100870005093170140931601860F971F0E9478012D
:1008800080911101909112019701281B390BC90128
:100890000E949B01809111019091120188339F4F1A
:1008A00034F488E39FEF90931201809311018091BB
:1008B000110190911201893C910534F088EC90E08F
:1008C000909312018093110180911601909117016C
:1008D00088339F4F34F488E39FEF90931701809300
:1008E00016018091160190911701893C910534F011
:1008F00088EC90E09093170180931601FF90EF90A1
:10090000089510981198129813982FEF33EC49E03E
:10091000215030404040E1F700C0000020E030E0CE
:10092000992787FD90951CC0109A119A129A139AD4
:100930005FEF63EC49E0515060404040E1F700C098
:10094000000010981198129813985FEF63EC49E03B
:10095000515060404040E1F700C000002F5F3F4F22
:10096000281739070CF30895EF92FF927C0181E07C
:100970000E9481041098119812981398E0FC109A24
:10098000E1FC119AE2FC129AE3FC139A80E00E94C7
:1009900006028823D9F382E00E948104E4FC109AC5
:1009A000E5FC119AE6FC129AE7FC139A80E00E949B
:1009B00006028823D9F383E00E948104F0FC109A98
:1009C000F1FC119AF2FC129AF3FC139A80E00E9457
:1009D00006028823D9F384E00E948104F4FC109A73
:1009E000F5FC119AF6FC129AF7FC139A80E00E942B
:1009F00006028823D9F3FF90EF900895CF92DF92FB
:100A0000EF92FF920E945F0283EF91E00197F1F76E
:100A100000C0000058E0C52ED12CE12CF12C0E9422
:100A20007302E80EF91E91E0C91AD108C1F7C70197
:100A300043E0959587954A95E1F78436910524F42E
:100A400010981198129813989C0124563109283C4B
:100A5000310520F4109811981298139A9C012C5289
:100A60003140283C310520F410981198129A139ABD
:100A70009C01245F31402C32314010F4109804C0A6
:100A80008032934024F0109A119A129A139AFF9090
:100A9000EF90DF90CF9008950E945E007894469882
:100AA00047982FEF81EE94E0215080409040E1F78D
:100AB00000C0000080910E0190910F01843F914091
:100AC00018F484EF91E002C080E090E00E940C01F5
:100AD00080910C0190910D01843F914018F484EFB6
:100AE00091E002C080E090E00E941F0182E00E943D
:100AF0000602882341F082E390E00E94320182E303
:100B000090E00E94550180E00E940602882341F097
:100B10008EEC9FEF0E9432018EEC9FEF0E945501F8
:100B200080E00E940602882341F08EEC9FEF0E9435
:100B300032018EEC9FEF0E94550181E00E94060277
:100B4000882341F08FEF90E00E9432018FEF90E018
:0E0B50000E9455010E94C801ADCFF894FFCF5E
:00000001FF
