:100000000C944A000C9469000C9469000C948F02C3
:100010000C94B0020C9469000C9469000C94690073
:100020000C9469000C9469000C9469000C946900AC
:100030000C9469000C9469000C9469000C9469009C
:100040000C9469000C9469000C9469000C9469008C
:100050000C9469000C9469000C9469000C9469007C
:100060000C9469000C9469000C9469000C9469006C
:100070000C9469000C9469000C9469000C9469005C
:100080000C945D060C9469000C9469000C94690052
:100090000C94690011241FBECFEFD0E1DEBFCDBFAD
:1000A00011E0A0E0B1E0E6EDFEE000E00BBF02C031
:1000B00007900D92A033B107D9F711E0A0E3B1E0AA
:1000C00001C01D92A936B107E1F70E94ED060C941C
:1000D00069070C94000081B18F6081B98FEF87B9F7
:1000E00082B1807F82B9ECE7F0E08081806C808310
:1000F00080818F7D80838081807F8083EAE7F0E04C
:1001000080818760808384B1806684B981EA80932E
:10011000800083E0809381008DB18C608DB97298EE
:10012000739A83B3836083BBA198A09A10928900CD
:100130001092880010928B0010928A0080916401C6
:10014000887F877F809364011092600110925F0125
:1001500010925E0110925D0182E080936101109225
:10016000CD0083E38093CC008EE08093CA0088E9C1
:100170008093C90008954498439808954098419801
:100180004298089580913A0190913B0190933701F4
:100190008093360180913801909139019093350117
:1001A0008093340110923B0110923A011092390170
:1001B00010923801109233011092320110923101E5
:1001C00010923001089597FD03C07398729A0BC086
:1001D0007298739A9195819591098F3F910519F0C5
:1001E00014F08FEF90E09093890080938800089539
:1001F0009093330180933201919581959109909369
:10020000310180933001089597FD03C0A098A19A11
:100210000BC0A198A09A9195819591098F3F910566
:1002200019F014F08FEF90E090938B0080938A0088
:1002300008958F3F910509F02CF481302FEF92073C
:1002400024F005C08FEF90E002C081E09FEF909313
:100250003B0180933A0108958F3F910509F02CF4FA
:1002600081302FEF920724F005C08FEF90E002C09D
:1002700081E09FEF90933901809338010895209198
:100280003A0130913B01280F391F2F3F310509F00A
:100290002CF430933B0120933A0106C08FEF90E09D
:1002A00090933B0180933A0180913A0190913B01F8
:1002B00081309F4F34F481E09FEF90933B01809316
:1002C0003A0108952091380130913901280F391FE2
:1002D0002F3F310509F02CF4309339012093380178
:1002E00006C08FEF90E090933901809338018091A0
:1002F00038019091390181309F4F34F481E09FEFB4
:100300009093390180933801089520913201309102
:100310003301280F391F2F3F310509F02CF430939A
:1003200033012093320106C08FEF90E090933301A8
:1003300080933201809132019091330181309F4F3F
:1003400034F481E09FEF909333018093320108955C
:100350002091300130913101280F391F2F3F310595
:1003600009F02CF4309331012093300106C08FEF57
:1003700090E0909331018093300180913001909111
:10038000310181309F4F34F481E09FEF9093310130
:100390008093300108959093330180933201089542
:1003A00090933101809330010895EF92FF928091F4
:1003B0003A0190913B012091320130913301820F3B
:1003C000931FE0903801F090390120913001309175
:1003D0003101E20EF31E8F3F910509F02CF48130BC
:1003E0002FEF920724F005C08FEF90E002C081E06C
:1003F0009FEF2FEFE216F10409F034F421E0E2164A
:100400002FEFF2062CF008C0EE24EA94F12C04C081
:10041000EE24E394FF24FA940E94E300C701FF90C6
:10042000EF900C9404018130C9F030F0823049F132
:10043000833009F04FC038C08091640180FF04C050
:10044000049B02C08E7F37C080B18295817091E09D
:1004500089279091640180FB90F93AC080916401F2
:1004600081FF04C0059B02C08D7F25C080B185FB44
:10047000882780F991E089279091640180FB91F9A8
:1004800027C08091640182FF04C0069B02C08B7F5D
:1004900012C080B186FB882780F991E0892790916E
:1004A000640180FB92F914C08091640183FF07C04E
:1004B000079B05C0877F8093640181E0089580B128
:1004C0008095881F8827881F9091640180FB93F98D
:1004D0009093640180E0089590917C00907F9093C8
:1004E0007C0090917C00982B90937C0080917A0006
:1004F000806480937A0080917A0086FDFCCF089515
:1005000080917A00806480937A0080917A0086FDE1
:10051000FCCF2091780030917900C90108951F9295
:100520000F920FB60F9211248F939F9380915F01CA
:100530009091600101969093600180935F0180919A
:100540005F01909160018937910510F0109801C00A
:10055000109A9F918F910F900FBE0F901F9018953A
:100560001F920F920FB60F9211248F939F93809139
:100570005D0190915E01019690935E0180935D0113
:1005800080915D0190915E018937910510F011987D
:1005900001C0119A9F918F910F900FBE0F901F90E5
:1005A0001895AF92BF92CF92DF92EF92FF9284E0C4
:1005B0000E946C02F4E0CF2ED12CE12CF12C0E9491
:1005C0008002E80EF91E21E0C21AD108C1F75701D6
:1005D000B694A794B694A79483E00E946C02E4E0DA
:1005E000CE2ED12CE12CF12C0E948002E80EF91EB7
:1005F00041E0C41AD108C1F7970136952795369581
:100600002795809165019091660140E2A41643E030
:10061000B40608F467C02032334008F067C09C017C
:100620002450310930936601209365018455910966
:100630000E94F800119A81E06DC09C012C5F3F4F31
:1006400030936601209365018C5A9F4F0E94F800F9
:10065000109A109261012BC088E592E090933301CB
:100660008093320188EA9DEF9093310180933001AD
:10067000109A80916101813069F488EA9DEF90932E
:1006800033018093320188E592E0909331018093A9
:100690003001119A809165019091660154E0959521
:1006A00087955A95E1F79093660180936501809153
:1006B0006501909166018C399F4F34F48CE99FEF6E
:1006C0009093660180936501809165019091660128
:1006D000853691053CF184E690E090936601809325
:1006E000650120C020323340C0F0A7CF1092330103
:1006F000109232011092310110923001109811982D
:1007000044E0959587954A95E1F79093660180932B
:10071000650182E080936101CACF809161018111FE
:10072000A8CF9ACFFF90EF90DF90CF90BF90AF907F
:1007300008958F929F92AF92BF92CF92DF92EF92E5
:10074000FF9280E00E946C0238E0C32ED12CE12C95
:10075000F12C0E948002E80EF91E81E0C81AD1082F
:10076000C1F7570193E0B694A7949A95E1F781E019
:100770000E946C0228E0C22ED12CE12CF12C0E94A8
:100780008002E80EF91E81E0C81AD108C1F74701BE
:10079000B3E096948794BA95E1F782E00E946C02E8
:1007A00088E0C82ED12CE12CF12C0E948002E80EAA
:1007B000F91E81E0C81AD108C1F7A3E0F694E794C6
:1007C000AA95E1F789EC88169104D0F089ECA81677
:1007D000B10448F088EA9DEF909333018093320191
:1007E00088E592E008C088E592E090933301809319
:1007F000320188EA9DEF90933101809330010CC063
:100800001092330110923201109231011092300196
:1008100089ECA816B104F0F689ECE816F10460F052
:1008200088E592E0909333018093320188EA9DEF4E
:100830009093310180933001FF90EF90DF90CF9043
:10084000BF90AF909F908F900895EF92FF92E090AD
:100850005F01F0906001E81AF90A20915D01309182
:100860005E01281B390B6F2D772740916201509153
:100870006301460F571F5093630140936201632F3A
:1008800077274091670150916801460F571F509399
:1008900068014093670140915F01509160010A96A1
:1008A0008417950730F41092630110926201E12CD5
:1008B000F12C40915D0150915E018417950730F451
:1008C000109268011092670120E030E0232F332757
:1008D0008091670190916801820F931F0E94190116
:1008E000EF2CFF2480916201909163018E0D9F1D7A
:1008F0000E942C01809162019091630188339F4F87
:1009000034F488E39FEF90936301809362018091B8
:10091000620190916301893C910534F088EC90E08C
:1009200090936301809362018091670190916801C7
:1009300088339F4F34F488E39FEF9093680180934E
:1009400067018091670190916801893C910534F0BD
:1009500088EC90E09093680180936701FF90EF909E
:10096000089510981198129813982FEF33EC49E0DE
:10097000215030404040E1F700C0000020E030E06E
:10098000992787FD90951CC0109A119A129A139A74
:100990005FEF63EC49E0515060404040E1F700C038
:1009A000000010981198129813985FEF63EC49E0DB
:1009B000515060404040E1F700C000002F5F3F4FC2
:1009C000281739070CF30895EF92FF927C0181E01C
:1009D0000E94B1041098119812981398E0FC109A94
:1009E000E1FC119AE2FC129AE3FC139A80E00E9467
:1009F00013028823D9F382E00E94B104E4FC109A28
:100A0000E5FC119AE6FC129AE7FC139A80E00E943A
:100A100013028823D9F383E00E94B104F0FC109AFA
:100A2000F1FC119AF2FC129AF3FC139A80E00E94F6
:100A300013028823D9F384E00E94B104F4FC109AD5
:100A4000F5FC119AF6FC129AF7FC139A80E00E94CA
:100A500013028823D9F3FF90EF900895CF92DF928D
:100A6000EF92FF920E946C0283EF91E00197F1F701
:100A700000C00000F8E0CF2ED12CE12CF12C0E9418
:100A80008002E80EF91E91E0C91AD108C1F7C7012A
:100A9000E3E095958795EA95E1F78436910524F48E
:100AA00010981198129813989C0124563109283CEB
:100AB000310520F4109811981298139A9C012C5229
:100AC0003140283C310520F410981198129A139A5D
:100AD0009C01245F31402C32314010F4109804C046
:100AE0008032934024F0109A119A129A139AFF9030
:100AF000EF90DF90CF9008959091C80095FFFCCFC4
:100B00008093CE000895EF92FF927C0102C00E9474
:100B10007C05F70181917F018111F9CFFF90EF9062
:100B20000895CF92DF92EF92FF92CF93DF93CDB7EC
:100B3000DEB7CA55D1090FB6F894DEBF0FBECDBFE0
:100B4000FC018081823619F480E091E0A6C08434F3
:100B500009F044C08181882309F47FC0DF01129627
:100B6000C12CD12C4AE00AC09601429F6001439FEC
:100B7000D00C112490E0C097C80ED91E9D012E1BE9
:100B80003F0B8D91982F90539A3070F3D9011196A5
:100B9000AE0FBF1FE12CF12C2AE00AC0A701249F51
:100BA0007001259FF00C112490E0C097E80EF91E0B
:100BB0008D91982F90539A3088F34AE050E0BE010F
:100BC0006F5F7F4FC7010E940E070E948305C60119
:100BD0000E941901C7010E942C0161C08534C1F532
:100BE00085E69CE2A0E0B0E089839A83AB83BC8376
:100BF000FE0135968AE1DF011D928A95E9F74AE008
:100C000050E0BE01635C7F4F80913A0190913B01BF
:100C10000E940E07BC01CE0101960E94FC066DE108
:100C200071E0CE0101960E94FC064AE050E0BE0150
:100C3000615E7F4F80913801909139010E940E07CB
:100C4000BC01CE0101960E94FC06CE01019625C092
:100C5000893409F58181811103C087E191E01DC0CC
:100C6000828180530E946C0289E69CE2A0E08F8F13
:100C700098A3A9A30E9480024AE050E0BE016F5FE2
:100C80007F4F0E942F07BC01CE014F960E94FC06A9
:100C9000CE014F9602C08FE191E00E948305C65AB3
:100CA000DF4F0FB6F894DEBF0FBECDBFDF91CF91FF
:100CB000FF90EF90DF90CF9008951F920F920FB6A4
:100CC0000F9211240BB60F92CF92DF92EF92FF9208
:100CD0000F931F932F933F934F935F936F937F9344
:100CE0008F939F93AF93BF93EF93FF93CF93DF9334
:100CF000CDB7DEB7CDB6DEB68091CE0090915C0167
:100D000091114BC08A3091F08D3081F090915B0150
:100D10009E3160F4E0915B01F0E0E45CFE4F808383
:100D200080915B018F5F80935B0137C00DB71EB769
:100D3000E0915B01F0E0E45CFE4F108281E0809383
:100D40005C012FEF31EE84E0215030408040E1F72C
:100D500000C0000080915B012DB73EB7281B310910
:100D60000FB6F8943EBF0FBE2DBFEDB6FEB68FEFA7
:100D7000E81AF80A6CE371E0C7010E9407071092B5
:100D80005B0110925C01C7010E949105802F912F99
:100D90000FB6F8949EBF0FBE8DBF0FB6F894DEBE9F
:100DA0000FBECDBEDF91CF91FF91EF91BF91AF917B
:100DB0009F918F917F916F915F914F913F912F9173
:100DC0001F910F91FF90EF90DF90CF900F900BBE8F
:100DD0000F900FBE0F901F9018950E946B00789493
:100DE0002FEF81EE94E0215080409040E1F700C069
:100DF00000000E94D501FDCFFB01DC010D90002019
:100E0000E9F7119701900D920020E1F70895FB0199
:100E1000DC0101900D920020E1F70895FB019F0194
:100E2000E8944230C4F04532B4F44A3029F497FBD8
:100E30001EF4909581959F4F642F77270E94550748
:100E4000805D8A330CF0895D8193CB010097A1F717
:100E500016F45DE251931082C9010C944507FB0121
:100E60009F01423074F0453264F4642F77270E946A
:100E70005507805D8A330CF0895D8193CB01009723
:100E8000A1F71082C9010C944507DC01FC01672F12
:100E900071917723E1F7329704C07C916D93708351
:100EA0006291AE17BF07C8F30895AA1BBB1B51E19F
:100EB00007C0AA1FBB1FA617B70710F0A61BB70BCA
:100EC000881F991F5A95A9F780959095BC01CD016F
:060ED0000895F894FFCF25
:100ED600526F6262792073657269616C20496E7423
:100EE600657266616365006572726F72002C0075CB
:100EF6006E6B6E6F776E20636F6D6D616E64000052
:00000001FF
