:100000000C944A000C9469000C9469000C948F02C3
:100010000C94B0020C9469000C9469000C94690073
:100020000C9469000C9469000C9469000C946900AC
:100030000C9469000C9469000C9469000C9469009C
:100040000C9469000C9469000C9469000C9469008C
:100050000C9469000C9469000C9469000C9469007C
:100060000C9469000C9469000C9469000C9469006C
:100070000C9469000C9469000C9469000C9469005C
:100080000C9469000C9469000C9469000C9469004C
:100090000C94690011241FBECFEFD0E1DEBFCDBFAD
:1000A00011E0A0E0B1E0ECEFFBE000E00BBF02C02C
:1000B00007900D92A831B107D9F711E0A8E1B1E09E
:1000C00001C01D92A135B107E1F70E94EF050C9424
:1000D000FC050C94000081B18F6081B98FEF87B966
:1000E00082B1807F82B9ECE7F0E08081806C808310
:1000F00080818F7D80838081807F8083EAE7F0E04C
:1001000080818760808384B1806684B981EA80932E
:10011000800083E0809381008DB18C608DB97298EE
:10012000739A83B3836083BBA198A09A10928900CD
:100130001092880010928B0010928A0080914C01DE
:10014000887F877F80934C0110924801109247016D
:10015000109246011092450182E08093490110926D
:10016000CD0083E38093CC008CE08093CA0088E9C3
:100170008093C90008954498439808954098419801
:1001800042980895809122019091230190931F013C
:1001900080931E01809120019091210190931D0177
:1001A00080931C01109223011092220110922101D0
:1001B0001092200110921B0110921A011092190145
:1001C00010921801089597FD03C07398729A0BC09E
:1001D0007298739A9195819591098F3F910519F0C5
:1001E00014F08FEF90E09093890080938800089539
:1001F00090931B0180931A01919581959109909399
:10020000190180931801089597FD03C0A098A19A41
:100210000BC0A198A09A9195819591098F3F910566
:1002200019F014F08FEF90E090938B0080938A0088
:1002300008958F3F910509F02CF481302FEF92073C
:1002400024F005C08FEF90E002C081E09FEF909313
:1002500023018093220108958F3F910509F02CF42A
:1002600081302FEF920724F005C08FEF90E002C09D
:1002700081E09FEF909321018093200108952091C8
:10028000220130912301280F391F2F3F310509F03A
:100290002CF4309323012093220106C08FEF90E0CD
:1002A0009093230180932201809122019091230158
:1002B00081309F4F34F481E09FEF9093230180932E
:1002C000220108952091200130912101280F391F2A
:1002D0002F3F310509F02CF43093210120932001A8
:1002E00006C08FEF90E090932101809320018091D0
:1002F00020019091210181309F4F34F481E09FEFE4
:100300009093210180932001089520911A0130914A
:100310001B01280F391F2F3F310509F02CF43093B2
:100320001B0120931A0106C08FEF90E090931B01F0
:1003300080931A0180911A0190911B0181309F4F87
:1003400034F481E09FEF90931B0180931A0108958C
:100350002091180130911901280F391F2F3F3105C5
:1003600009F02CF4309319012093180106C08FEF87
:1003700090E0909319018093180180911801909159
:10038000190181309F4F34F481E09FEF9093190160
:1003900080931801089590931B0180931A0108958A
:1003A00090931901809318010895EF92FF92809124
:1003B00022019091230120911A0130911B01820F9B
:1003C000931FE0902001F0902101209118013091BD
:1003D0001901E20EF31E8F3F910509F02CF48130D4
:1003E0002FEF920724F005C08FEF90E002C081E06C
:1003F0009FEF2FEFE216F10409F034F421E0E2164A
:100400002FEFF2062CF008C0EE24EA94F12C04C081
:10041000EE24E394FF24FA940E94E300C701FF90C6
:10042000EF900C9404018130C9F030F0823049F132
:10043000833009F04FC038C080914C0180FF04C068
:10044000049B02C08E7F37C080B18295817091E09D
:10045000892790914C0180FB90F93AC080914C0122
:1004600081FF04C0059B02C08D7F25C080B185FB44
:10047000882780F991E0892790914C0180FB91F9C0
:1004800027C080914C0182FF04C0069B02C08B7F75
:1004900012C080B186FB882780F991E0892790916E
:1004A0004C0180FB92F914C080914C0183FF07C07E
:1004B000079B05C0877F80934C0181E0089580B140
:1004C0008095881F8827881F90914C0180FB93F9A5
:1004D00090934C0180E0089590917C00907F9093E0
:1004E0007C0090917C00982B90937C0080917A0006
:1004F000806480937A0080917A0086FDFCCF089515
:1005000080917A00806480937A0080917A0086FDE1
:10051000FCCF2091780030917900C90108951F9295
:100520000F920FB60F9211248F939F9380914701E2
:1005300090914801019690934801809347018091E2
:100540004701909148018937910510F0109801C03A
:10055000109A9F918F910F900FBE0F901F9018953A
:100560001F920F920FB60F9211248F939F93809139
:100570004501909146010196909346018093450173
:1005800080914501909146018937910510F01198AD
:1005900001C0119A9F918F910F900FBE0F901F90E5
:1005A0001895AF92BF92CF92DF92EF92FF9284E0C4
:1005B0000E946C02F4E0CF2ED12CE12CF12C0E9491
:1005C0008002E80EF91E21E0C21AD108C1F75701D6
:1005D000B694A794B694A79483E00E946C02E4E0DA
:1005E000CE2ED12CE12CF12C0E948002E80EF91EB7
:1005F00041E0C41AD108C1F7970136952795369581
:10060000279580914D0190914E0140E2A41643E060
:10061000B40608F467C02032334008F067C09C017C
:100620002450310930934E0120934D018455910996
:100630000E94F800119A81E06DC09C012C5F3F4F31
:1006400030934E0120934D018C5A9F4F0E94F80029
:10065000109A109249012BC088E592E090931B01FB
:1006600080931A0188EA9DEF9093190180931801F5
:10067000109A80914901813069F488EA9DEF909346
:100680001B0180931A0188E592E0909319018093F1
:100690001801119A80914D0190914E0154E0959569
:1006A00087955A95E1F790934E0180934D01809183
:1006B0004D0190914E018C399F4F34F48CE99FEF9E
:1006C00090934E0180934D0180914D0190914E0188
:1006D000853691053CF184E690E090934E0180933D
:1006E0004D0120C020323340C0F0A7CF10921B0133
:1006F00010921A0110921901109218011098119875
:1007000044E0959587954A95E1F790934E01809343
:100710004D0182E080934901CACF80914901811146
:10072000A8CF9ACFFF90EF90DF90CF90BF90AF907F
:1007300008958F929F92AF92BF92CF92DF92EF92E5
:10074000FF9280E00E946C0238E0C32ED12CE12C95
:10075000F12C0E948002E80EF91E81E0C81AD1082F
:10076000C1F7570193E0B694A7949A95E1F781E019
:100770000E946C0228E0C22ED12CE12CF12C0E94A8
:100780008002E80EF91E81E0C81AD108C1F74701BE
:10079000B3E096948794BA95E1F782E00E946C02E8
:1007A00088E0C82ED12CE12CF12C0E948002E80EAA
:1007B000F91E81E0C81AD108C1F7A3E0F694E794C6
:1007C000AA95E1F789EC88169104D0F089ECA81677
:1007D000B10448F088EA9DEF90931B0180931A01C1
:1007E00088E592E008C088E592E090931B01809331
:1007F0001A0188EA9DEF90931901809318010CC0AB
:1008000010921B0110921A011092190110921801F6
:1008100089ECA816B104F0F689ECE816F10460F052
:1008200088E592E090931B0180931A0188EA9DEF7E
:100830009093190180931801FF90EF90DF90CF9073
:10084000BF90AF909F908F900895EF92FF92E090AD
:100850004701F0904801E81AF90A209145013091CA
:100860004601281B390B6F2D772740914A01509183
:100870004B01460F571F50934B0140934A01632F82
:10088000772740914F0150915001460F571F5093C9
:10089000500140934F0140914701509148010A9601
:1008A0008417950730F410924B0110924A01E12C05
:1008B000F12C40914501509146018417950730F481
:1008C0001092500110924F0120E030E0232F332787
:1008D00080914F0190915001820F931F0E94190146
:1008E000EF2CFF2480914A0190914B018E0D9F1DAA
:1008F0000E942C0180914A0190914B0188339F4FB7
:1009000034F488E39FEF90934B0180934A018091E8
:100910004A0190914B01893C910534F088EC90E0BC
:1009200090934B0180934A0180914F019091500127
:1009300088339F4F34F488E39FEF90935001809366
:100940004F0180914F0190915001893C910534F005
:1009500088EC90E09093500180934F01FF90EF90CE
:10096000089510981198129813982FEF33EC49E0DE
:10097000215030404040E1F700C0000020E030E06E
:10098000992787FD90951CC0109A119A129A139A74
:100990005FEF63EC49E0515060404040E1F700C038
:1009A000000010981198129813985FEF63EC49E0DB
:1009B000515060404040E1F700C000002F5F3F4FC2
:1009C000281739070CF30895EF92FF927C0181E01C
:1009D0000E94B1041098119812981398E0FC109A94
:1009E000E1FC119AE2FC129AE3FC139A80E00E9467
:1009F00013028823D9F382E00E94B104E4FC109A28
:100A0000E5FC119AE6FC129AE7FC139A80E00E943A
:100A100013028823D9F383E00E94B104F0FC109AFA
:100A2000F1FC119AF2FC129AF3FC139A80E00E94F6
:100A300013028823D9F384E00E94B104F4FC109AD5
:100A4000F5FC119AF6FC129AF7FC139A80E00E94CA
:100A500013028823D9F3FF90EF900895CF92DF928D
:100A6000EF92FF920E946C0283EF91E00197F1F701
:100A700000C00000F8E0CF2ED12CE12CF12C0E9418
:100A80008002E80EF91E91E0C91AD108C1F7C7012A
:100A9000E3E095958795EA95E1F78436910524F48E
:100AA00010981198129813989C0124563109283CEB
:100AB000310520F4109811981298139A9C012C5229
:100AC0003140283C310520F410981198129A139A5D
:100AD0009C01245F31402C32314010F4109804C046
:100AE0008032934024F0109A119A129A139AFF9030
:100AF000EF90DF90CF9008959091C00095FFFCCFCC
:100B00008093C60008958091C00087FFFCCF80913C
:100B1000C6000895EF92FF927C0102C00E947C05FE
:100B2000F70181917F018111F9CFFF90EF90089536
:100B30001F920F920FB60F9211240BB60F922F93A4
:100B40003F934F935F936F937F938F939F93AF9355
:100B5000BF93EF93FF938091CE00109A119A129A4F
:100B6000139A90914401911123C08A3091F08D30F5
:100B700081F0909143019E3160F4E0914301F0E0F7
:100B8000EC5DFE4F8083809143018F5F8093430132
:100B90000FC0E0914301F0E0EC5DFE4F1082109237
:100BA000430181E08093440180E091E00E948A0546
:100BB000FF91EF91BF91AF919F918F917F916F9135
:100BC0005F914F913F912F910F900BBE0F900FBEF1
:100BD0000F901F90189580E091E00C948A050E9478
:100BE0006B0078942FEF81EE94E02150804090408C
:0C0BF000E1F700C00000F6CFF894FFCF42
:100BFC00526F6262792073657269616C20496E7400
:080C0C0065726661636500007A
:00000001FF
