:100000000C944A000C9469000C9469000C949A02B8
:100010000C94BB020C9469000C9469000C94690068
:100020000C9469000C9469000C9469000C946900AC
:100030000C9469000C9469000C9469000C9469009C
:100040000C9469000C9469000C9469000C9469008C
:100050000C9469000C9469000C9469000C9469007C
:100060000C9469000C9469000C9469000C9469006C
:100070000C9469000C9469000C9469000C9469005C
:100080000C9469000C9469000C9469000C9469004C
:100090000C94690011241FBECFEFD0E1DEBFCDBFAD
:1000A00011E0A0E0B1E0EAEAFEE000E00BBF02C030
:1000B00007900D92A032B107D9F711E0A0E2B1E0AC
:1000C00001C01D92A935B107E1F70E9499060C9471
:1000D00053070C94000081B18F6081B98FEF87B90D
:1000E00082B1807F82B9ECE7F0E08081806C808310
:1000F00080818F7D80838081807F8083EAE7F0E04C
:1001000080818760808384B1806684B981EA80932E
:10011000800083E0809381008DB18C608DB97298EE
:10012000739A83B3836083BBA198A09A10928900CD
:100130001092880010928B0010928A0080915401D6
:10014000887F877F809354011092500110924F0155
:1001500010924E0110924D0182E0809351011DBA20
:10016000E9E6F0E010828081806A80838DB38C6044
:100170008DBB1AB81092C50083E38093C4008EE053
:100180008093C20088E98093C10008954498439801
:100190000895409841984298089580912A0190913D
:1001A0002B01909327018093260180912801909143
:1001B0002901909325018093240110922B01109224
:1001C0002A01109229011092280110922301109205
:1001D00022011092210110922001089597FD03C081
:1001E0007398729A0BC07298739A91958195910940
:1001F0008F3F910519F014F08FEF90E090938900F4
:100200008093880008959093230180932201919513
:10021000819591099093210180932001089597FD84
:1002200003C0A098A19A0BC0A198A09A919581951E
:1002300091098F3F910519F014F08FEF90E09093A2
:100240008B0080938A0008958F3F910509F02CF46C
:1002500081302FEF920724F005C08FEF90E002C0AD
:1002600081E09FEF90932B0180932A0108958F3FA7
:10027000910509F02CF481302FEF920724F005C08E
:100280008FEF90E002C081E09FEF9093290180936F
:100290002801089520912A0130912B01280F391F40
:1002A0002F3F310509F02CF430932B0120932A01C4
:1002B00006C08FEF90E090932B0180932A018091EC
:1002C0002A0190912B0181309F4F34F481E09FEF00
:1002D00090932B0180932A01089520912801309159
:1002E0002901280F391F2F3F310509F02CF43093D5
:1002F00029012093280106C08FEF90E090932901F7
:1003000080932801809128019091290181309F4F8D
:1003100034F481E09FEF90932901809328010895A0
:100320002091220130912301280F391F2F3F3105E1
:1003300009F02CF4309323012093220106C08FEFA3
:1003400090E090932301809322018091220190916B
:10035000230181309F4F34F481E09FEF909323017C
:100360008093220108952091200130912101280FCE
:10037000391F2F3F310509F02CF4309321012093D0
:10038000200106C08FEF90E090932101809320011F
:10039000809120019091210181309F4F34F481E0C0
:1003A0009FEF909321018093200108959093230162
:1003B0008093220108959093210180932001089554
:1003C000EF92FF9280912A0190912B0120912201BE
:1003D00030912301820F931FE0902801F0902901B2
:1003E0002091200130912101E20EF31E8F3F9105F3
:1003F00009F02CF481302FEF920724F005C08FEF25
:1004000090E002C081E09FEF2FEFE216F10409F0C7
:1004100034F421E0E2162FEFF2062CF008C0EE24AF
:10042000EA94F12C04C0EE24E394FF24FA940E9491
:10043000EE00C701FF90EF900C940F018130C9F0DE
:1004400030F0823049F1833009F04FC038C08091DC
:10045000540180FF04C0049B02C08E7F37C080B16E
:100460008295817091E089279091540180FB90F9E9
:100470003AC08091540181FF04C0059B02C08D7F6A
:1004800025C080B185FB882780F991E0892790916C
:10049000540180FB91F927C08091540182FF04C070
:1004A000069B02C08B7F12C080B186FB882780F933
:1004B00091E089279091540180FB92F914C08091BA
:1004C000540183FF07C0079B05C0877F80935401B9
:1004D00081E0089580B18095881F8827881F9091BA
:1004E000540180FB93F99093540180E0089590911A
:1004F0007C00907F90937C0090917C00982B90934F
:100500007C0080917A00806480937A0080917A00E8
:1005100086FDFCCF089580917A00806480937A00F4
:1005200080917A0086FDFCCF20917800309179008F
:10053000C90108951F920F920FB60F9211248F9345
:100540009F9380914F01909150010196909350019B
:1005500080934F0180914F01909150018536910514
:1005600010F0109801C0109A9F918F910F900FBEBC
:100570000F901F9018951F920F920FB60F92112493
:100580008F939F9380914D0190914E01019690938E
:100590004E0180934D0180914D0190914E01853621
:1005A000910510F0119801C0119A9F918F910F90B1
:1005B0000FBE0F901F901895AF92BF92CF92DF920F
:1005C000EF92FF9284E00E947702F4E0CF2ED12CCC
:1005D000E12CF12C0E948B02E80EF91E21E0C21AD8
:1005E000D108C1F75701B694A794B694A79483E0B5
:1005F0000E947702E4E0CE2ED12CE12CF12C0E9457
:100600008B02E80EF91E41E0C41AD108C1F7970128
:1006100036952795369527958091550190915601ED
:1006200040E2A41643E0B40608F467C02032334029
:1006300008F067C09C012450310930935601209383
:100640005501845591090E940301119A81E06DC002
:100650009C012C5F3F4F30935601209355018C5ADB
:100660009F4F0E940301109A109251012BC088E500
:1006700092E0909323018093220188EA9DEF90936A
:10068000210180932001109A80915101813069F4F9
:1006900088EA9DEF909323018093220188E592E000
:1006A0009093210180932001119A8091550190919E
:1006B000560154E0959587955A95E1F79093560128
:1006C0008093550180915501909156018C399F4F2F
:1006D00034F48CE99FEF90935601809355018091FB
:1006E000550190915601853691053CF184E690E0E4
:1006F000909356018093550120C020323340C0F0C2
:10070000A7CF109223011092220110922101109282
:1007100020011098119844E0959587954A95E1F746
:10072000909356018093550182E080935101CACF86
:10073000809151018111A8CF9ACFFF90EF90DF9067
:10074000CF90BF90AF9008958F929F92AF92BF923B
:10075000CF92DF92EF92FF9280E00E94770238E022
:10076000C32ED12CE12CF12C0E948B02E80EF91E35
:1007700081E0C81AD108C1F7570193E0B694A79455
:100780009A95E1F781E00E94770228E0C22ED12CF1
:10079000E12CF12C0E948B02E80EF91E81E0C81AB0
:1007A000D108C1F74701B3E096948794BA95E1F771
:1007B00082E00E94770288E0C82ED12CE12CF12C37
:1007C0000E948B02E80EF91E81E0C81AD108C1F719
:1007D000A3E0F694E794AA95E1F789EC88169104D2
:1007E000D0F089ECA816B10448F088EA9DEF909308
:1007F00023018093220188E592E008C088E592E019
:10080000909323018093220188EA9DEF9093210128
:10081000809320010CC010922301109222011092AB
:1008200021011092200189ECA816B104F0F689ECA0
:10083000E816F10460F088E592E09093230180933C
:10084000220188EA9DEF9093210180932001FF907F
:10085000EF90DF90CF90BF90AF909F908F900895D2
:10086000EF92FF9220914F0130915001BC01621B29
:10087000730B20914D0130914E017C01E21AF30A75
:100880008091520190915301860F971F90935301CD
:100890008093520140915701509158014E0D5F1DB8
:1008A0005093580140935701860F971F0E942401CF
:1008B00080915201909153019701281B390BC90176
:1008C0000E943701809152019091530188339F4FCC
:1008D00034F488E39FEF9093530180935201809109
:1008E000520190915301893C910534F088EC90E0DD
:1008F0009093530180935201809157019091580138
:1009000088339F4F34F488E39FEF9093580180938E
:1009100057018091570190915801893C910534F01D
:1009200088EC90E09093580180935701FF90EF90EE
:10093000089510981198129813982FEF33EC49E00E
:10094000215030404040E1F700C0000020E030E09E
:10095000992787FD90951CC0109A119A129A139AA4
:100960005FEF63EC49E0515060404040E1F700C068
:10097000000010981198129813985FEF63EC49E00B
:10098000515060404040E1F700C000002F5F3F4FF2
:10099000281739070CF30895EF92FF927C0181E04C
:1009A0000E9499041098119812981398E0FC109ADC
:1009B000E1FC119AE2FC129AE3FC139A80E00E9497
:1009C0001E028823D9F382E00E949904E4FC109A65
:1009D000E5FC119AE6FC129AE7FC139A80E00E946B
:1009E0001E028823D9F383E00E949904F0FC109A38
:1009F000F1FC119AF2FC129AF3FC139A80E00E9427
:100A00001E028823D9F384E00E949904F4FC109A12
:100A1000F5FC119AF6FC129AF7FC139A80E00E94FA
:100A20001E028823D9F3FF90EF900895CF92DF92B2
:100A3000EF92FF920E94770283EF91E00197F1F726
:100A400000C0000058E0C52ED12CE12CF12C0E94F2
:100A50008B02E80EF91E91E0C91AD108C1F7C7014F
:100A600043E0959587954A95E1F78436910524F4FE
:100A700010981198129813989C0124563109283C1B
:100A8000310520F4109811981298139A9C012C5259
:100A90003140283C310520F410981198129A139A8D
:100AA0009C01245F31402C32314010F4109804C076
:100AB0008032934024F0109A119A129A139AFF9060
:100AC000EF90DF90CF9008959091C00095FFFCCFFC
:100AD0008093C60008958091C00087FFFCCF80916D
:100AE000C6000895EF92FF927C0102C00E94640547
:100AF000F70181917F018111F9CFFF90EF90089567
:100B0000AF92BF92CF92DF92EF92FF92CF93DF939B
:100B1000CDB7DEB763970FB6F894DEBF0FBECDBF7B
:100B20007C01FC018081823621F480E091E00E940A
:100B30007205F7018081843409F042C081818823E5
:100B400009F479C0D7011296A12CB12C2AE00AC071
:100B5000A501249F5001259FB00C112490E0C0975F
:100B6000A80EB91EFD01EE19FF098D91982F905323
:100B70009A3070F33196EE0DFF1DC12CD12C2AE076
:100B80000AC0A601249F6001259FD00C112490E08B
:100B9000C097C80ED91E8191982F90539A3088F330
:100BA0004AE050E0BE016F5F7F4FC6010E94F80629
:100BB0000E947205C5010E942401C6010E943701EE
:100BC000F7018081853481F525E63CE240E0298B00
:100BD0003A8B4B8B4AE050E0BE01675F7F4F8091BC
:100BE0002A0190912B010E94F806BC01CE0141968A
:100BF0000E94ED066DE171E0CE0141960E94ED0686
:100C00004AE050E0BE016F5F7F4F809128019091D4
:100C100029010E94F806BC01CE0141960E94ED0612
:100C2000CE0141960E947205F7018081893419F541
:100C30008181811103C087E191E01BC0F7018281AE
:100C400080530E94770289E69CE2A0E089879A8718
:100C5000AB870E948B024AE050E0BE016F5F7F4F7E
:100C60000E941907BC01CE0109960E94ED06CE0133
:100C700009960E94720563960FB6F894DEBF0FBE08
:100C8000CDBFDF91CF91FF90EF90DF90CF90BF90DD
:100C9000AF9008951F920F920FB60F9211240BB6CA
:100CA0000F922F933F934F935F936F937F938F9305
:100CB0009F93AF93BF93EF93FF938091C600909162
:100CC0004C01911123C08A3091F08D3081F09091C8
:100CD0004B019E3160F4E0914B01F0E0E45DFE4F8A
:100CE000808380914B018F5F80934B010FC0E09117
:100CF0004B01F0E0E45DFE4F108210924B0181E069
:100D000080934C018CE291E00E948005FF91EF916D
:100D1000BF91AF919F918F917F916F915F914F9113
:100D20003F912F910F900BBE0F900FBE0F901F9011
:100D300018950E946B007894469847982FEF81EEA3
:100D400094E0215080409040E1F700C00000809185
:100D50004F01909150018837910518F484EF91E08C
:100D600002C080E090E00E94240180914D019091AA
:100D70004E018837910518F484EF91E002C080E0BD
:100D800090E00E94370180E00E941E02882341F01B
:100D90001092500110924F0110924E0110924D018D
:100DA00081E00E941E02882341F0109250011092AF
:100DB0004F0110924E0110924D0182E00E941E02DE
:100DC000882341F01092500110924F0110924E0171
:100DD00010924D010E94E001BACFFB01DC010D90A1
:100DE0000020E9F7119701900D920020E1F7089596
:100DF000FB019F01E8944230C4F04532B4F44A301C
:100E000029F497FB1EF4909581959F4F642F7727C7
:100E10000E943F07805D8A330CF0895D8193CB018E
:100E20000097A1F716F45DE251931082C9010C946A
:100E30002F07FB019F01423074F0453264F4642FA8
:100E400077270E943F07805D8A330CF0895D81938C
:100E5000CB010097A1F71082C9010C942F07DC0188
:100E6000FC01672F71917723E1F7329704C07C91E1
:100E70006D9370836291AE17BF07C8F30895AA1BE4
:100E8000BB1B51E107C0AA1FBB1FA617B70710F075
:100E9000A61BB70B881F991F5A95A9F780959095A7
:0A0EA000BC01CD010895F894FFCFC6
:100EAA00526F6262792073657269616C20496E744F
:100EBA00657266616365006572726F72002C00006C
:00000001FF
